:020000040800F2
:100000000804002045010008B5050008AD050008FA
:10001000B10500088D01000841080008000000003B
:10002000000000000000000000000000F1060008D1
:100030009101000800000000B9060008DD07000873
:100040005F0100085F0100085F0100085F01000810
:100050005F0100085F010008950100085F010008CA
:10006000C1010008F1010008210200085F01000839
:100070005F0100085F0100085F0100085F010008E0
:100080005F0100085F0100085F0100085F010008D0
:100090005F0100085F0100085F0100085F010008C0
:1000A0005F0100085F0100085F0100085F010008B0
:1000B0005F0100085F0100085F0100085F010008A0
:1000C0005F0100085F0100085F0100085F01000890
:1000D0005F0100085F0100085F0100085F01000880
:1000E0005F0100085F0100085F0100085F01000870
:1000F0005F0100085F0100085F0100085F01000860
:100100005F0100085F0100085F0100085F0100084F
:100110005F0100085F0100085F0100085F0100083F
:100120005F0100085F0100085F0100085F0100082F
:10013000DFF80CD000F018F80048004785080008E8
:10014000080400200648804706480047FEE7FEE70F
:10015000FEE7FEE7FEE7FEE7FEE7FEE7FEE7FEE777
:10016000E107000831010008064C074D06E0E06891
:1001700040F0010394E8070098471034AC42F6D3EE
:10018000FFF7DAFF180900083809000800BFFEE78A
:100190007047000010B5012000F0AAF858B1012105
:1001A000054800F0FAF9012802D10420034908703B
:1001B000012000F04DF810BD0008014000000020B3
:1001C00010B5042000F094F868B1142000F049FB49
:1001D0000421054800F0E1F910B903200349087033
:1001E000042000F035F810BD001801400000002088
:1001F00010B5082000F07CF868B1142000F031FB45
:100200000821054800F0C9F910B902200349087017
:10021000082000F01DF810BD00180140000000206B
:1002200010B5102000F064F868B1142000F019FB3C
:100230001021054800F0B1F910B9012003490870F8
:10024000102000F005F810BD00180140000000204B
:100250000149086070470000140401401CB50421E6
:10026000084600F0EFF80321042000F0EBF802212B
:10027000042000F0E7F80021084600F0E3F8102021
:10028000009001208DF8060000208DF804000C205D
:100290008DF80500684600F03FF808200090012026
:1002A0008DF8060000208DF804000C208DF8050064
:1002B000684600F031F80420009001208DF8060017
:1002C00000208DF804000C208DF80500684600F031
:1002D00023F8012000908DF8060000208DF804001E
:1002E00008208DF80500684600F016F81CBD0000D7
:1002F000014600200022074B1B6803EA0102054B60
:1003000014331B680B4013B10AB1012000E0002038
:100310007047000000040140002123498279002A2F
:100320003AD00A46126803689A430B461A600A1DBF
:10033000126803689A430B1D1A60027911440A6817
:1003400003681A430A60184A0832126803689A431D
:10035000154B08331A601A1D126803689A43124B32
:100360000C331A604279102A0ED11A1F12680368E2
:100370001A430D4B08331A601A1D126803681A439A
:10038000094B0C331A600DE00749427911440A68A1
:1003900003681A430A6005E0027911440A68036899
:1003A0009A430A60704700000004014008B520200D
:1003B000ADF8000002208DF8020010208DF8030037
:1003C00069461D4800F05EF82020ADF8000069463F
:1003D0001A4800F057F84FF48070ADF80000102074
:1003E0008DF8030002208DF802006946124800F0E3
:1003F00049F81020ADF8000002208DF802004820D6
:100400008DF8030069460D4800F03CF80C20ADF86B
:10041000000048208DF803006946084800F032F8D3
:100420000120ADF8000028208DF80300694604483B
:1004300000F028F808BD0000000C01400018014041
:100440000008014030B500228B071C0F0F2303FA70
:1004500004F20B4B8C1053F824309343084C8D104E
:1004600044F8253023468C1053F824308C07240F91
:1004700000FA04F42343024C8D1044F8253030BDBB
:10048000080001402DE9F041024600250026002029
:1004900000230024002791F803C00CF00F0591F809
:1004A00003C00CF0100CBCF1000F03D091F802C097
:1004B0004CEA050591F800C0BCF1000F31D014687A
:1004C00000202BE04FF0010C0CFA00F3B1F800C053
:1004D0000CEA03069E4220D183004FF00F0C0CFA69
:1004E00003F7BC4305FA03FC4CEA040491F803C08B
:1004F000BCF1280F06D14FF0010C0CFA00FCC2F839
:1005000014C00AE091F803C0BCF1480F05D14FF0C8
:10051000010C0CFA00FCC2F810C0401C0828D1D312
:100520001460B1F800C0BCF1FF0F34DD5468002046
:100530002EE000F1080C4FF0010808FA0CF3B1F8B6
:1005400000C00CEA03069E4221D183004FF00F0C3D
:100550000CFA03F7BC4305FA03FC4CEA040491F8D7
:1005600003C0BCF1280F05D100F1080C08FA0CF803
:10057000C2F8148091F803C0BCF1480F07D100F114
:10058000080C4FF0010808FA0CF8C2F81080401C63
:100590000828CED35460BDE8F0810246002093685D
:1005A0000B400BB1012000E00020704700BFFEE7C8
:1005B00000BFFEE7704708B54FF4A06000F072F886
:1005C0000A208DF8000001208DF8030000208DF82E
:1005D000010002208DF80200684600F02BF8092087
:1005E0008DF8000001208DF8030000208DF8010037
:1005F00003208DF80200684600F01CF808208DF8F2
:10060000000001208DF803008DF8010000208DF816
:100610000200684600F00EF806208DF80000012068
:100620008DF803008DF801008DF80200684600F097
:1006300001F808BD70B5002100230F22C47804B36F
:10064000154C246804F4E064C4F5E064210AC1F1A7
:100650000403CA40447804FA03F184781440214327
:1006600009010E4C0678A155047804F01F050124F9
:10067000AC4005786D11AD0005F1E025C5F80041ED
:1006800009E0047804F01F050124AC40044D06780D
:10069000761145F8264070BD0CED00E000E400E066
:1006A00080E100E002490143024A11607047000006
:1006B0000000FA050CED00E07047000029B1064A81
:1006C00092690243044B9A6104E0034A92698243AF
:1006D000014B9A61704700000010024010B50121E3
:1006E0004C20FFF7EBFF01210846FFF7E7FF10BDA5
:1006F000704710B500F002F810BD00000CB50020E6
:10070000019000903348006840F48030314908601F
:1007100000BF3048006800F4003000900198401C91
:100720000190009818B90198B0F5A06FF1D129484F
:10073000006800F4003010B10120009001E00020BA
:1007400000900098012843D12348006840F0100031
:10075000214908600846006820F003000860084648
:10076000006840F0020008601A4840681949486073
:100770000846406848600846406840F48060486029
:100780000846406820F47C1048600846406840F401
:10079000E81048600846006840F08070086000BFBC
:1007A0000C48006800F000700028F9D00948406843
:1007B00020F00300074948600846406840F0020006
:1007C000486000BF0348406800F00C000828F9D1D9
:1007D0000CBD0000001002400020024070470000E5
:1007E00010B51348006840F0010011490860084640
:1007F0004068104908400E494860084600680E49A4
:1008000008400B4908600846006820F48020086012
:100810000846406820F4FE0048604FF41F008860DE
:10082000FFF767FF4FF000600449086010BD00004B
:10083000001002400000FFF8FFFFF6FE08ED00E0A8
:1008400000BFFEE702E008C8121F08C1002AFAD163
:1008500070477047002001E001C1121F002AFBD140
:100860007047002107E04FF4FA5100BF0A1EA1F1C2
:10087000010399B2FAD1021EA0F1010398B2F2D19C
:1008800070470000FFF72AFFFFF790FDFFF793FE88
:10089000FFF7E4FC38E01D480078012823D0022847
:1008A00017D003280BD004282DD11948006880F4F4
:1008B00080701749086000201449087023E014482C
:1008C000006880F020001249086000200F4908707D
:1008D00019E01048006880F020000E4908600020F0
:1008E0000A4908700FE00A48006880F020000849B3
:1008F00008600848006880F0200006490860002071
:100900000249087000BF00BFC5E7000000000020DA
:100910000C0C01400C1801403809000800000020B0
:1009200004000000440800083C09000804000020FE
:0C0930000404000054080008000000004F
:0400000508000131BD
:00000001FF
