:020000040800F2
:1000000008040020450100084D0100084F010008C8
:1000100051010008530100085501000800000000CC
:100020000000000000000000000000005701000870
:1000300059010008000000005B0100085D01000894
:100040005F0100085F0100085F0100085F01000810
:100050005F0100085F0100085F0100085F01000800
:100060005F0100085F0100085F0100085F010008F0
:100070005F0100085F0100085F0100085F010008E0
:100080005F0100085F0100085F0100085F010008D0
:100090005F0100085F0100085F0100085F010008C0
:1000A0005F0100085F0100085F0100085F010008B0
:1000B0005F0100085F0100085F0100085F010008A0
:1000C0005F0100085F0100085F0100085F01000890
:1000D0005F0100085F0100085F0100085F01000880
:1000E0005F0100085F0100085F0100085F01000870
:1000F0005F0100085F0100085F0100085F01000860
:100100005F0100085F0100085F0100085F0100084F
:100110005F0100085F0100085F0100085F0100083F
:100120005F0100085F0100085F0100085F0100082F
:10013000DFF80CD000F018F800480047350600083A
:10014000080400200648804706480047FEE7FEE70F
:10015000FEE7FEE7FEE7FEE7FEE7FEE7FEE7FEE777
:100160007905000831010008064C074D06E0E068FB
:1001700040F0010394E8070098471034AC42F6D3EE
:10018000FFF7DAFF100700083007000808B5012163
:10019000082000F06DF94FF48070ADF800001020D9
:1001A0008DF8030002208DF802006946044800F033
:1001B00009F84FF48071024800F0DDF808BD000036
:1001C000000C01402DE9F0410246002500260020E8
:1001D00000230024002791F803C00CF00F0591F8CC
:1001E00003C00CF0100CBCF1000F03D091F802C05A
:1001F0004CEA050591F800C0BCF1000F31D014683D
:1002000000202BE04FF0010C0CFA00F3B1F800C015
:100210000CEA03069E4220D183004FF00F0C0CFA2B
:1002200003F7BC4305FA03FC4CEA040491F803C04D
:10023000BCF1280F06D14FF0010C0CFA00FCC2F8FB
:1002400014C00AE091F803C0BCF1480F05D14FF08B
:10025000010C0CFA00FCC2F810C0401C0828D1D3D5
:100260001460B1F800C0BCF1FF0F34DD5468002009
:100270002EE000F1080C4FF0010808FA0CF3B1F879
:1002800000C00CEA03069E4221D183004FF00F0C00
:100290000CFA03F7BC4305FA03FC4CEA040491F89A
:1002A00003C0BCF1280F05D100F1080C08FA0CF8C6
:1002B000C2F8148091F803C0BCF1480F07D100F1D7
:1002C000080C4FF0010808FA0CF8C2F81080401C26
:1002D0000828CED35460BDE8F081000008B50121A4
:1002E000442000F0C5F81C20ADF8000048208DF82F
:1002F000030069460648FFF765FF0120ADF80000DE
:1003000028208DF8030069460248FFF75BFF08BD0F
:10031000001801400008014008B50121482000F004
:10032000A7F82020ADF8000010208DF8030003206E
:100330008DF8020069460948FFF744FF202107486D
:1003400000F01BF82020ADF8000069460448FFF7D4
:1003500039FF2021024800F010F808BD000C0140D0
:10036000001801400246002093680B400BB10120A9
:1003700000E0002070474161704701617047000054
:1003800010B5044614B101202C4908702B480078A0
:10039000002837D010212A48FFF7E4FF78B1082160
:1003A0002748FFF7DFFF50B104212548FFF7DAFFA8
:1003B00028B101212348FFF7D5FF012822D10A20C7
:1003C00000F027F900201D49087010211C48FFF794
:1003D000C9FF08B9012010BD08211948FFF7C2FF65
:1003E00008B90220F7E704211548FFF7BBFF08B959
:1003F0000320F0E701211348FFF7B4FF01281BD1C8
:100400000420E8E710210E48FFF7ACFF012813D1C4
:1004100008210B48FFF7A6FF01280DD10421084849
:10042000FFF7A0FF012807D101210648FFF79AFF37
:1004300010B90120014908700020CCE7000000201D
:10044000001801400008014010B50446202106486C
:10045000FFF791FF642104FB01F000F0DAF820219E
:100460000248FFF788FF10BD000C01400018014052
:1004700029B1064A92690243044B9A6104E0034A97
:1004800092698243014B9A6170470000001002405C
:1004900010B500F001F810BD0CB5002001900090DF
:1004A0003348006840F480303149086000BF30486C
:1004B000006800F4003000900198401C0190009802
:1004C00018B90198B0F5A06FF1D12948006800F47F
:1004D000003010B10120009001E000200090009851
:1004E000012843D12348006840F0100021490860EA
:1004F0000846006820F0030008600846006840F0E5
:10050000020008601A484068194948600846406877
:1005100048600846406840F480604860084640688B
:1005200020F47C1048600846406840F4E8104860B9
:100530000846006840F08070086000BF0C48006802
:1005400000F000700028F9D00948406820F003004E
:10055000074948600846406840F00200486000BF14
:100560000348406800F00C000828F9D10CBD0000D9
:10057000001002400020024010B51348006840F00F
:1005800001001149086008464068104908400E49BA
:100590004860084600680E4908400B490860084654
:1005A000006820F4802008600846406820F4FE00BF
:1005B00048604FF41F008860FFF76AFF4FF000604B
:1005C0000449086010BD0000001002400000FFF860
:1005D000FFFFF6FE08ED00E002E008C8121F08C1A8
:1005E000002AFAD170477047002001E001C1121FB4
:1005F000002AFBD1704701464A1CD0B2142800DD06
:1006000014207047014609B9002001E04A1ED0B20B
:100610007047002107E04FF4FA5100BF0A00A1F132
:10062000010399B2FAD10200A0F1010398B2F2D10C
:100630007047000000240525FFF76EFEFFF74EFE11
:10064000FFF7A4FD5FE00020FFF79AFE0446002CB0
:1006500059D0012C43D0022C2DD0032C17D0042CC0
:1006600050D100BF81012848FFF787FEFA20FFF72D
:10067000D0FFA1012448FFF77EFE00BF20212248C1
:10068000FFF77BFE20212148FFF777FE3AE000BF0D
:100690004FF480711C48FFF770FEFA20FFF7B9FF96
:1006A0004FF480711848FFF766FE00BF2846FFF739
:1006B000A9FF054626E000BF4FF480711248FFF7FE
:1006C0005CFEFA20FFF7A5FF4FF480710E48FFF79C
:1006D00052FE00BF2846FFF78EFF054612E000BF1E
:1006E0004FF480710848FFF748FEFA20FFF791FFAA
:1006F0004FF480710448FFF73EFE00BF2846FFF725
:10070000A3FE00BF00BF9EE7000C0140001801409F
:10071000300700080000002004000000D805000891
:10072000340700080400002004040000E805000865
:0407300001000000C4
:0400000508000131BD
:00000001FF
