:020000040800F2
:10000000500400209D050008590100085B0100080C
:100010005F0100086301000867010008000000009C
:100020000000000000000000000000006B0100085C
:100030006D010008000000006F0100087101000858
:10004000B7050008B7050008B7050008B7050008A0
:10005000B7050008B705000873010008AF010008E4
:10006000A9020008F9020008B7050008B705000852
:10007000B7050008B7050008B7050008B705000870
:10008000B7050008B7050008B7050008B705000860
:10009000B7050008B7050008B7050008B705000850
:1000A000B7050008B7050008B7050008B705000840
:1000B000B7050008B7050008B7050008B705000830
:1000C000B7050008B7050008B7050008B705000820
:1000D000B705000835020008B7050008B705000895
:1000E000B7050008B7050008B7050008B705000800
:1000F000B7050008B7050008B7050008B7050008F0
:10010000B7050008B7050008B7050008B7050008DF
:10011000B7050008B7050008ED010008B70500089D
:10012000B7050008B7050008B7050008B7050008BF
:10013000DFF80CD002F02CFB004800474501000816
:100140005004002002F0B4F801F0FCFF02F06CF85B
:1001500002F010F900BFFEE7704700BFFEE700BFE6
:10016000FEE700BFFEE700BFFEE77047704770473D
:10017000704710B5012000F015FE012816D100F0DF
:100180000DFE0A2001F0C2FF0121734800F009FBB7
:1001900060B90A2001F0BAFF70480078401CC0B274
:1001A0006E490870182801D10020087010BD10B5E4
:1001B000022000F0F7FD012817D1022000F0EEFD2B
:1001C0000A2001F0A3FF0221634800F0EAFA60B9B7
:1001D0000A2001F09BFF62480078401CC0B26049D1
:1001E00008703C2801D10020087010BD10B5012115
:1001F0005C4801F055FD5C480078401CC0B25A498B
:1002000008703C2815D10020087055480078401C23
:10021000C0B2534908703C280BD1002008704F48E9
:100220000078401CC0B24D490870182801D1002048
:10023000087010BD10B540214C4801F000FF4C483B
:100240000078401C4A49087008460078032190FB5A
:10025000F1F201FB1200012805D1444801F078FEBB
:100260003E49087013E042480078032190FBF1F208
:1002700001FB1200022805D13C4801F069FE384913
:10028000087004E0394801F063FE374908703848C7
:100290000178364801F058FE00BF8021334801F054
:1002A000C1FE0028F9D010BD10B5042000F076FD85
:1002B000282001F02BFF0421274800F072FAD0B962
:1002C000282001F023FF25480178002002F0F4F9EE
:1002D00023480178012002F0EFF923480178022039
:1002E00002F0EAF9204803781D4802781B4801789B
:1002F00020A002F05FFA10BD70B5082000F04EFD9E
:10030000322001F003FF0821134800F04AFA0028C8
:1003100020D1322001F0FAFE134803781048027809
:100320000E4801781AA002F045FA322001F0EEFEE4
:10033000002002F05FF90646012002F05BF9044656
:10034000022002F057F905462B462246314616A0F8
:1003500002F030FA70BD00000018014000000020DB
:100360000100002000100040020000200038014081
:1003700022000020B0B4BCFCB0B4CFC2CAB1BCE40F
:10038000CEAA3A25643A25643A25640A00000000A2
:10039000B5B1C7B0CFB5CDB3CAB1BCE43A25643A64
:1003A00025643A25640A0000B6C1C8A1B0B4BCFCFB
:1003B000CAB1BFCC3A25643A25643A25640A0000E4
:1003C0000CB50020019000906B48006840F480302C
:1003D0006949086000BF6848006800F40030009078
:1003E0000198401C0190009818B90198B0F5A06FD1
:1003F000F1D16148006810F4003F02D00120009064
:1004000001E0002000900098012842D15B4800687C
:1004100040F01000594908600846006820F00300C9
:1004200008600846006840F00200086052484068D2
:10043000514948600846406848600846406840F4B2
:10044000806048600846406820F47C104860084698
:10045000406840F4E81048600846006840F080704A
:10046000086000BF4448006810F0007FFAD042489E
:10047000406820F00300404948600846406840F06A
:100480000200486000BF3C48406800F00C000828AB
:10049000F9D10CBD10B5FFF793FF10BD10B536486C
:1004A000006840F00100344908600846406834495B
:1004B00008403149486008460068324908402E49E2
:1004C00008600846006820F48020086008464068FC
:1004D00020F4FE0048604FF41F008860FFF7DAFF49
:1004E0004FF000602849086010BD10B500210020C1
:1004F0000022214B5B6803F00C0121B1042906D0D6
:10050000082928D107E0214B214C236027E01F4B0D
:100510001F4C236023E0184B5B6803F47010164BEC
:100520005B6803F48032022303EB904022B9194B3D
:100530004343174C23600DE00F4B5B6813F4003FFF
:1005400004D0144B4343124C236003E00F4B43434E
:100550000F4C236003E00D4B0D4C236000BF00BF28
:10056000054B5B68C3F303130B4CE15C084B1B6842
:10057000CB40074C236010BD001002400020024019
:100580000000FFF8FFFFF6FE08ED00E000127A0021
:100590002400002000093D00280000200648804774
:1005A00006480047FEE7FEE7FEE7FEE7FEE7FEE758
:1005B000FEE7FEE7FEE7FEE79D04000831010008C4
:1005C00010B50446CA48844208D10121042000F035
:1005D00027FB0021042000F023FB46E0C5488442AD
:1005E00008D10121082000F01BFB0021082000F0A9
:1005F00017FB3AE0C048844208D10121102000F0E6
:100600000FFB0021102000F00BFB2EE0BB488442C2
:1006100008D10121202000F003FB0021202000F060
:10062000FFFA22E0B648844208D10121402000F0C0
:10063000F7FA0021402000F0F3FA16E0B1488442B6
:1006400008D10121802000F0EBFA0021802000F089
:10065000E7FA0AE0AC48844207D10121801500F096
:10066000DFFA0021A01500F0DBFA10BD10B5012162
:10067000084600F0D5FA0021012000F0D1FA10BDA3
:100680002DE9F04102460025002600200023002429
:10069000002791F803C00CF00F0591F803C01CF07F
:1006A000100F03D091F802C04CEA050591F800C084
:1006B000BCF1000F31D0146800202BE04FF0010C8A
:1006C0000CFA00F3B1F800C00CEA03069E4220D1F8
:1006D00083004FF00F0C0CFA03F7BC4305FA03FC40
:1006E0004CEA040491F803C0BCF1280F06D14FF086
:1006F000010C0CFA00FCC2F814C00AE091F803C027
:10070000BCF1480F05D14FF0010C0CFA00FCC2F807
:1007100010C0401C0828D1D31460B1F800C0BCF14F
:10072000FF0F34DD546800202EE000F1080C4FF07C
:10073000010808FA0CF3B1F800C00CEA03069E4267
:1007400021D183004FF00F0C0CFA03F7BC4305FADC
:1007500003FC4CEA040491F803C0BCF1280F05D156
:1007600000F1080C08FA0CF8C2F8148091F803C0E4
:10077000BCF1480F07D100F1080C4FF0010808FA4E
:100780000CF8C2F81080401C0828CED35460BDE895
:10079000F0814FF6FF710180022181700421C17048
:1007A00070470246002093680B4201D0012000E010
:1007B000002070470146886880B2704702460020DA
:1007C000D3680B4201D0012000E0002070470146B1
:1007D000C86880B2704701617047416170470AB1D3
:1007E000016100E041617047C16070474FF48032A1
:1007F0000A4382618161826182698269704702462F
:100800000020424B18684FF68073184040EA0210EF
:1008100008433E4B186070473D49C8617047F0B5CA
:100820000A46002300240021002500F00046B6F10E
:10083000004F02D1354EF16901E0344E7168C0F3CA
:10084000034583B200F44016B6F5401F08D121F0ED
:1008500070612E4E766826F070662C4F7E6012E036
:1008600000F48016B6F5801F06D1032606FA05F4BB
:10087000A14341F0706106E0460D360103FA06F629
:10088000B14341F0706122B1460D360103FA06F61C
:10089000314300F00046B6F1004F02D11B4EF1612A
:1008A00001E01A4E7160F0BD30B500228B071C0FBD
:1008B0000F2303FA04F2154B08338C1053F824303D
:1008C0009343124C08348D1044F8253023468C1085
:1008D00053F824308C07240F00FA04F423430B4C04
:1008E00008348D1044F8253030BD0A49086070473F
:1008F00000080140000C01400010014000140140BC
:1009000000180140001C014000200140000001408F
:1009100000002042DC002042DD48006840F0010079
:10092000DB49086008464068DA490840D849486011
:1009300008460068D8490840D5490860084600685C
:1009400020F4802008600846406820F4FE004860DB
:100950004FF41F0088607047CD49096821F4803149
:10096000CB4A11601146096821F480211160B0F56D
:10097000803F03D0B0F5802F0ED106E0C44909684E
:1009800041F48031C24A116007E0C149096841F46D
:10099000A021BF4A116000E000BF00BF704710B542
:1009A00001460022002300204A11012A02D1B84C3E
:1009B000236806E0022A02D1B54C236A01E0B44C58
:1009C000636A01F01F02012494401C4201D00120FF
:1009D00000E0002010BD38B5002000900024002564
:1009E00000BF3120FFF7DBFF05460098401C009058
:1009F0000098B0F5A06F01D0002DF2D03120FFF7A4
:100A0000CEFF08B1012400E00024204638BD014695
:100A100000209F4A106820F0F80040EAC1001060F2
:100A200070479E490860704702460020984B5868FE
:100A300020F47C1042EA01031843954B586070473C
:100A400096490866704701460020914A506820F098
:100A500003000843506070478D48406800F00C0068
:100A60007047014600208A4A506820F0F000084391
:100A70005060704701460020854A506820F4E060CD
:100A800008435060704701460020814A506820F4B6
:100A9000605040EAC1005060704729B17C4A527AE8
:100AA00002437B4B5A7204E0794A527A8243784B74
:100AB0005A7270477A490860704701460020744AAC
:100AC000506820F440400843506070470021754A48
:100AD00011706F4A82F82010012802D0042808D132
:100AE00003E001216F4A117004E005216D4A117085
:100AF00000E000BF00BF70476B4908607047644961
:100B0000096A0143624A11627047674944390860C3
:100B1000704730B500210022002400235C4D6D6831
:100B200005F00C0121B1042905D0082923D105E0E5
:100B30005E4D056022E05D4D05601FE0544D6D681F
:100B400005F47012524D6D6805F48034022505EBF2
:100B500092421CB9564D554305600BE04C4D6D68F3
:100B600015F4003F03D0524D5543056002E04F4D50
:100B70005543056002E04D4D056000BF00BF444D88
:100B80006D6805F0F00109094A4D6B5C0568DD40B0
:100B900045603F4D6D6805F4E061090A454D6B5CA9
:100BA0004568DD4085603A4D6D6805F46051C90ABD
:100BB000404D6B5C4568DD40C560354D6D6805F4A2
:100BC0004041890B3C4D6B5CC568B5FBF3F5056195
:100BD00030BD29B12E4A526902432D4B5A6104E0BF
:100BE0002B4A526982432A4B5A61704729B1284ADD
:100BF00092690243264B9A6104E0254A9269824336
:100C0000234B9A61704729B1214AD2690243204B94
:100C1000DA6104E01E4AD26982431D4BDA617047F3
:100C200029B11B4AD2680243194BDA6004E0184A22
:100C3000D2688243164BDA60704729B1144A1269B0
:100C40000243134B1A6104E0114A12698243104BAC
:100C50001A61704714494039086070470F49C864E9
:100C600070470B49C87170470948406A40F080706E
:100C700007494862704701460020054A92680A42C7
:100C800001D0012000E000207047014988727047C0
:100C9000001002400000FFF8FFFFF6FE0000424295
:100CA000D8004242201002408004424200127A00E2
:100CB00000093D0038000020480000200020444981
:100CC0000860091D0860091D0860091D0860414889
:100CD0003F4914310860704700213D498279002A5C
:100CE0003AD00A46126803689A430B461A600A1DF6
:100CF000126803689A430B1D1A60027911440A684E
:100D000003681A430A60324A0832126803689A4339
:100D10002F4B08331A601A1D126803689A432C4B34
:100D20000C331A604279102A0ED11A1F1268036818
:100D30001A43274B08331A601A1D126803681A43B6
:100D4000234B0C331A600DE02149427911440A68A3
:100D500003681A430A6005E0027911440A680368CF
:100D60009A430A6070470021016001710C214171B2
:100D70000021817170471649103109680143144AF6
:100D800010321160704701460020114A1432126877
:100D90000A4201D0012000E0002070470C491431C4
:100DA00008607047014600200022094B1B6803EAD7
:100DB0000102074B14331B680B4202D00AB1012019
:100DC00000E00020704702491431086070470000BD
:100DD00000040140FFFF0F0031490143314A116017
:100DE000704770B5002100230F22C4780CB32D4C3E
:100DF000246804F4E064C4F5E064210AC1F104034A
:100E0000CA40447804FA03F184781440214309016C
:100E1000254C0678A155047804F01F050124AC4048
:100E200005786D114FF0E02606EB8505C5F8004109
:100E300009E0047804F01F050124AC401B4D06783E
:100E4000761145F8264070BD194A0A400243154BF9
:100E50001B1F1A60704739B1124A121D12680243F3
:100E6000104B1B1D1A6006E00E4A121D12688243C9
:100E70000C4B1B1D1A607047042808D14FF0E0216D
:100E8000096941F004014FF0E022116107E04FF0E1
:100E9000E021096921F004014FF0E022116170475F
:100EA0000000FA050CED00E000E400E080E100E065
:100EB00080FFFF1F10B50446FE48844208D101217F
:100EC000C014FFF7ADFE0021E014FFF7A9FEC4E057
:100ED000B4F1804F08D101210846FFF7AEFE002192
:100EE0000120FFF7AAFEB8E0F348844208D10121AF
:100EF0000220FFF7A2FE00210220FFF79EFEACE0D9
:100F0000EE48844208D101210420FFF796FE00211B
:100F10000420FFF792FEA0E0E948844208D10121B5
:100F20000820FFF78AFE00210820FFF786FE94E0E4
:100F3000E448844208D101211020FFF77EFE002101
:100F40001020FFF77AFE88E0DF48844208D10121B3
:100F50002020FFF772FE00212020FFF76EFE7CE0CC
:100F6000DA48844208D101214014FFF759FE0021DC
:100F70006014FFF755FE70E0D548844209D1012185
:100F8000C804FFF74DFE00214FF40020FFF748FE94
:100F900063E0D048844209D101210805FFF740FEF3
:100FA00000214FF48010FFF73BFE56E0CA48844210
:100FB00009D101214805FFF733FE00214FF400104D
:100FC000FFF72EFE49E0C548844208D101214020A8
:100FD000FFF733FE00214020FFF72FFE3DE0C04821
:100FE000844208D101218020FFF727FE00218020C4
:100FF000FFF723FE31E0BB48844208D10121801570
:10100000FFF71BFE0021A015FFF717FE25E0B648ED
:10101000844209D101210804FFF702FE00214FF4A8
:101020008030FFF7FDFD18E0B048844209D101216E
:101030004804FFF7F5FD00214FF40030FFF7F0FD05
:101040000BE0AB48844208D101218804FFF7E8FD9A
:1010500000214FF48020FFF7E3FD10BD002202883D
:10106000944B98420ED0994B98420BD0B0F1804FE0
:1010700008D0914B984205D0904B984202D0904BAB
:10108000984204D14FF68F731A404B881A438D4B08
:10109000984207D08C4B984204D04FF6FF431A4039
:1010A000CB881A4302808B8883850B880385814B0C
:1010B00098420BD0854B984208D08B4B984205D074
:1010C0008A4B984202D08A4B984201D10B7A038610
:1010D00001238382704770B5002400220023058C11
:1010E0004FF6FE7635400584028C8388048B4FF6DC
:1010F0008F752C40B51E2C400D882C43751E2A4040
:101100000D892A434D882A436A4DA8420BD06F4D62
:10111000A84208D0744DA84205D0744DA84202D010
:10112000734DA84213D14FF6F7752A404D892A43D3
:101130004FF6FB752A408D882A434FF6FF652B40FA
:101140004FF6FF552B408D892B43CD892B43838050
:101150000483CD888586028470BD70B5002400228A
:101160000023058C4FF6EF7635400584028C83888A
:10117000048B48F6FF752C404FF6FF452C400D8838
:101180004FF6FF7606EA05252C434FF6DF752A4019
:101190000D8906EA05152A434D8806EA05152A43F6
:1011A000444DA84202D0494DA8421DD14FF67F754B
:1011B0002A404D894FF6FF7606EA05152A434FF679
:1011C000BF752A408D8806EA05152A434FF6FF357C
:1011D0002B404FF2FF752B408D8906EA85052B4386
:1011E000CD8906EA85052B4383800483CD88058756
:1011F000028470BD70B5002400220023058C4FF6D8
:10120000FF6635400584028C8388848B4FF68F758A
:101210002C404FF6FC752C400D882C434FF6FF55A3
:101220002A400D894FF6FF7606EA05252A434D88A8
:1012300006EA05252A431F4DA84202D0234DA842A5
:101240001DD14FF2FF752A404D894FF6FF7606EA11
:1012500005252A434FF6FF352A408D8806EA0525E5
:101260002A434EF6FF752B404DF6FF752B408D89B6
:1012700006EA05152B43CD8906EA05152B43838025
:101280008483CD888587028470BD70B500220023D9
:101290000024058C4EF6FF7635400584038C848847
:1012A000828B48F6FF752A404FF6FF452A400D888D
:1012B00020E00000002C0140000400400008004035
:1012C000000C0040001000400014004000340140B9
:1012D000004C014000500140005401400018004003
:1012E000001C00400020004000400140004401403C
:1012F000004801404FF6FF7606EA05252A434DF6E1
:10130000FF752B400D8906EA05352B434D8806EA0B
:1013100005352B43FA4DA84202D0FA4DA84208D118
:101320004BF6FF752C408D894FF6FF7606EA851542
:101330002C4384808283CD88A0F84050038470BD04
:10134000828B4FF2FF331A408283828B4FF6FF73FA
:1013500003EA01231A4382837047F0B50C46154611
:10136000002200210026078C4EF6FF7C07EA0C07BE
:101370000784828B018C4FF6FF7707EA043640F62C
:10138000FF473A404FF6FF7707EA05273A434FF603
:10139000FF7707EA03373A43D94FB8420ED0D94F07
:1013A000B8420BD0B0F1804F08D0D74FB84205D02B
:1013B000D64FB84202D0D64FB84206D14DF6FF778D
:1013C000394046F48057394305E047F6FF57394026
:1013D00044F48057394382830184F0BD828B4FF6F9
:1013E000F3731A408283828B0A4382837047F0B57D
:1013F0000C461546002200210026078C4FF6FF6C94
:1014000007EA0C070784828B018C4FF6FF7707EA07
:1014100004264FF60C773A404FF6FF7707EA03179A
:101420002F433A43B64FB8420ED0B64FB8420BD016
:10143000B0F1804F08D0B44FB84205D0B34FB84296
:1014400002D0B34FB84206D14FF6FF57394046F4A9
:101450008077394305E04FF2FF57394044F48077F5
:10146000394382830184F0BD028B4FF2FF331A406F
:101470000283028B4FF6FF7303EA01231A430283B0
:101480007047F0B50C461546002200210026078C57
:101490004FF6EF7C07EA0C070784028B018C4FF6AE
:1014A000FF7707EA041640F6FF473A404FF6FF770A
:1014B00007EA03373A434FF6FF7707EA05273A432F
:1014C0008F4FB8420ED08F4FB8420BD0B0F1804F43
:1014D00008D08D4FB84205D08C4FB84202D08C4F07
:1014E000B84206D14FF6DF77394046F0100739434E
:1014F00005E04FF65F77394044F010073943028327
:101500000184F0BD028B4FF6F3731A400283028B05
:101510000A4302837047F0B50C46154600220021AD
:10152000068C4FF6FE773E400684028B018C4FF608
:101530000C7632407E1C06EA03162E433243704E70
:10154000B0420ED06F4EB0420BD0B0F1804F08D0F9
:101550006D4EB04205D06D4EB04202D06C4EB042DE
:1015600006D14FF6FD76314044F00106314305E0E7
:101570004FF6F576314044F0010631430283018491
:10158000F0BD70B505460C465D4885420ED05D48FD
:1015900085420BD0B5F1804F08D05B48854205D01D
:1015A0005A48854202D05A48854200D100E000BF27
:1015B000208850B92389A28861882846FFF7ABFFAD
:1015C000E1882846FFF79EFF25E0208804280AD1FD
:1015D0002389A28861882846FFF753FFE1882846BF
:1015E000FFF742FF17E0208808280AD12389A28844
:1015F00061882846FFF7FBFEE1882846FFF7EEFEEC
:1016000009E02389A28861882846FFF7A6FEE188C1
:101610002846FFF795FE70BD2DE9F04105460C46C2
:1016200000260127608808B9022600E00026A0886D
:10163000012801D1022700E001272088A0B92389D1
:10164000A28861882846FFF766FFE1882846FFF7F1
:1016500059FF23893A4631462846FFF712FFE188B1
:101660002846FFF701FF13E02389A28861882846F6
:10167000FFF707FFE1882846FFF7F6FE23893A4681
:1016800031462846FFF747FFE1882846FFF73AFF33
:10169000BDE8F0810A884B881A438B881A43CB88AF
:1016A0001A430B891A434B891A438B891A43A0F8B2
:1016B000442070474FF6FF71818000210180C18076
:1016C0004180017270470021018041808180C1808A
:1016D000018141818181C181704700210180418068
:1016E000012181800021C18001817047002101809A
:1016F00041808180C18001814181818170470000EA
:10170000002C01400034014000040040000800406B
:10171000000C004021B1028842F00102028004E086
:1017200002884FF6FE731A400280704731B1B0F85C
:10173000442042F40042A0F8442005E0B0F84420E0
:10174000C2F30E02A0F8442070471AB183890B43FC
:10175000838102E083898B43838170478182704754
:1017600041EA0203A0F8483070471AB183890B435D
:10177000838102E083898B438381704701894FF61F
:10178000F8721140018170470A46002101894FF625
:101790008F73194011430181704730B504460D46DF
:1017A00029462046FFF7F0FF208940F007002081FE
:1017B00030BD2DE9F04104460D4616461F46602D0A
:1017C00006D13B46012231462046FFF75AFE05E08E
:1017D0003B46012231462046FFF79DFE2946204622
:1017E000FFF7D2FF208940F007002081BDE8F0819B
:1017F00030B50C4600210189C9B24FF6FF7505EAE4
:101800000325154325432943018130BD2DE9F041CE
:1018100005460E4617469846002443463A4631464A
:101820002846FFF7E5FF2C894FF6F870044044F096
:1018300007044FF68F70044044F070042C81BDE81B
:10184000F081F0B504460D4616461F463B4632462B
:1018500029462046FFF7CCFF208940F480402081B4
:10186000F0BD0185828270470A46002101884FF64B
:101870008F731940114301807047F0B50C4615462F
:101880001E460021002200230189028B038C4FF6A3
:10189000F877394021434FF6FC473A4040F20117B0
:1018A0003A434FF6DD773B404FF6FF7707EA0617DE
:1018B0002F433B43018102830384F0BD0A4600218C
:1018C000018B4FF68F7319401143018370470A460D
:1018D0000021018B48F6FF7319404FF6FF7303EAAE
:1018E00002231943018370470A460021818B4FF67A
:1018F0008F7319401143818370470A460021818B01
:1019000048F6FF7319404FF6FF7303EA02231943A9
:101910008183704721B1028842F08002028004E096
:1019200002884FF67F731A400280704721B1828887
:1019300042F00402828004E082884FF6FB731A4072
:101940008280704721B1828842F00802828004E0E0
:1019500082884FF6F7731A408280704721B18288DF
:1019600042F00102828004E082884FF6FE731A4042
:10197000828070470A460021018B4FF6F7731940A9
:101980001143018370470A460021018B4FF2FF7318
:1019900019404FF6FF7303EA02231943018370478E
:1019A0000A460021818B4FF6F7731940114381835A
:1019B00070470A460021818B4FF2FF7319404FF6A2
:1019C000FF7303EA02231943818370470A4600210B
:1019D000018B4FF6FB7319401143018370470A4690
:1019E0000021018B4FF6FF3319404FF6FF7303EAD6
:1019F00002231943018370470A460021818B4FF669
:101A0000FB7319401143818370470A460021818B83
:101A10004FF6FF3319404FF6FF7303EA02231943D1
:101A2000818370470A460021018B4FF67F7319406E
:101A30001143018370470A460021018BC1F30E0157
:101A40004FF6FF7303EA02231943018370470A46E6
:101A50000021818B4FF67F731940114381837047BA
:101A60000A460021818BC1F30E014FF6FF7303EA92
:101A700002231943818370470A460021018C4FF6E7
:101A8000FD7319401143018470470A460021018CFF
:101A90004FF6F77319401143018470470A4600213D
:101AA000018C4FF6DF7319404FF6FF7303EA021300
:101AB0001943018470470A460021018C4FF67F7359
:101AC00019404FF6FF7303EA02131943018470476C
:101AD0000A460021018C4FF6FF5319404FF6FF7361
:101AE00003EA02231943018470470A460021018C4E
:101AF0004FF2FF7319404FF6FF7303EA02231943B5
:101B0000018470470A460021018C4DF6FF7319408D
:101B10004FF6FF7303EA023319430184704730B56F
:101B2000002301248C40A3B2048C9C430484048CC5
:101B300002FA01F5ADB22C43048430BD30B5002368
:101B400004248C40A3B2048C9C430484048C02FAC9
:101B500001F5ADB22C43048430BD70B503460020BE
:101B600000241846183001258D40ACB21D8CA543C9
:101B70001D8409B1082909D100EB6100056825F031
:101B8000700505600568154305600EE00D1FC5F37F
:101B90004E052844056825F4E045056005684FF6C4
:101BA000FF7606EA02263543056070BD21B1028842
:101BB00042F00202028004E002884FF6FD731A40F0
:101BC0000280704721B1028842F00402028004E0E2
:101BD00002884FF6FB731A400280704721B1828859
:101BE00042F08002828004E082884FF67F731A40C0
:101BF0008280704702884FF6F7731A40028002888D
:101C00000A430280704782884FF68F731A408280A1
:101C100082880A438280704702894FF6F8731A401F
:101C2000028102890A430281704702894FF67F735D
:101C30001A40028102890A430281704781847047F9
:101C4000818570478186704701877047818770471B
:101C5000A0F84010704702884FF6FF431A400280F8
:101C600002880A43028070470146888E7047014609
:101C7000088F70470146888F70470146B1F84000D1
:101C800070470146888C70470146088D70470246B0
:101C90000020138A0B4201D0012000E00020704791
:101CA000CA430282704730B5024600200023002458
:101CB000158A05EA0103958905EA010413B10CB1FF
:101CC000012000E0002030BDCA43028270470000BE
:101CD00010B50446FB48844209D101218803FEF770
:101CE0009FFF00214FF48040FEF79AFF32E0F64854
:101CF000844209D101214804FEF79FFF00214FF4DF
:101D00000030FEF79AFF25E0F048844209D1012116
:101D10008804FEF792FF00214FF48020FEF78DFF2C
:101D200018E0EB48844209D10121C804FEF785FF81
:101D300000214FF40020FEF780FF0BE0E5488442CD
:101D400008D101210805FEF778FF00214FF480102B
:101D5000FEF773FF10BD2DE9F04786B005460E462D
:101D60000024A24600BFA1460027B08900B100BFF1
:101D70002F462C8A4CF6FF700440F08804432C82D6
:101D8000AC894EF6F3100440B0883189084371895C
:101D900008430443AC81AC8A4FF6FF400440B0894D
:101DA0000443AC8201A8FEF7B4FEC648874202D1C4
:101DB000DDF810A001E0DDF80CA0A88910F4004FB8
:101DC00008D00AEBCA0000EB0A1031684900B0FBEA
:101DD000F1F807E00AEBCA0000EB0A10316889004D
:101DE000B0FBF1F86420B8FBF0F004012009642195
:101DF00001FB1089A88910F4004F08D0322000EBB5
:101E0000C900B0FBF1F000F00700044308E0322005
:101E100000EB09106421B0FBF1F000F00F00044367
:101E20002C8106B0BDE8F0874FF416510160002107
:101E30008180C18001810C21418100218181704715
:101E400010B502460020108A4FF2FF0318400B889D
:101E50004C8823438C882343CC8823431843108227
:101E600010BD0021018041808180C180704721B177
:101E7000828942F40052828104E082894DF6FF7328
:101E80001A4082817047F0B50346002400260025E1
:101E90000020A1F510676A3F00D100BF1846C1F3CA
:101EA000421401F01F06012707FA06F5012C01D1A3
:101EB0000C3004E0022C01D1103000E014301AB1D3
:101EC00007682F43076002E00768AF430760F0BD73
:101ED0001AB1838A0B43838202E0838A8B43838215
:101EE0007047028A4FF6F0731A400282028A0A4350
:101EF0000282704782894FF2FF731A408281828981
:101F00000A438281704721B1828942F002028281B4
:101F100004E082894FF6FD731A4082817047028A7D
:101F20004FF6DF731A400282028A0A430282704728
:101F300021B1028A42F48042028204E0028A4BF616
:101F4000FF731A4002827047C1F308028280704713
:101F500001468888C0F308007047818941F001017B
:101F600081817047028BD2B20283028B42EA012246
:101F700002837047028B02F47F420283028B0A4382
:101F80000283704721B1828A42F02002828204E0FB
:101F9000828A4FF6DF731A408282704721B1828AAB
:101FA00042F01002828204E0828A4FF6EF731A40F8
:101FB0008282704721B1828A42F00802828204E064
:101FC000828A4FF6F7731A408282704721B1828964
:101FD00042F40042828103E08289C2F30E028281D0
:101FE000704721B1828A42F40062828204E0828AD0
:101FF0004FF2FF731A4082827047828A4FF6FB735A
:102000001A408282828A0A438282704721B1828A80
:1020100042F00202828204E0828A4FF6FD731A4087
:102020008282704702460020B1F5007F00D100BFD8
:1020300013880B4201D0012000E00020704701F41A
:102040000072B2F5007F00D100BFCA430280704722
:1020500070B502460024002300250020A1F510667B
:102060006A3E00D100BFC1F3421501F01F030126F3
:1020700006FA03F3012D02D19689334006E0022DC2
:1020800002D1168A334001E0968A33400C120126B1
:1020900006FA04F41688344013B10CB1012000E0B4
:1020A000002070BD10B500220023A1F510646A3C29
:1020B00000D100BF0A1201249440A3B2DC43048083
:1020C00010BD0000003801400044004000480040BE
:1020D000004C004000500040014601EBC1024FF0AF
:1020E000E0235A6101221A6100229A6100BF4FF079
:1020F000E022106910F0010F02D010F4803FF6D0FA
:1021000000224FF0E0231A619A617047014642F2C3
:1021100028324A434FF0E0235A6101221A6100221B
:102120009A6100BF4FF0E022106910F0010F02D059
:1021300010F4803FF6D000224FF0E0231A619A613C
:10214000704700001FB501214120FEF74FFD0F2011
:10215000ADF80C0003208DF80E0048208DF80F001C
:1021600003A93048FEF78CFA00210420FEF79CFBFF
:1021700001210420FEF798FB02210420FEF794FBC6
:1021800003210420FEF790FB0F20019000208DF822
:1021900008000C208DF8090001208DF80A0001A824
:1021A000FEF79AFD4FF4A060FEF716FE06208DF8AC
:1021B000000002208DF8010000208DF802000120AF
:1021C0008DF803006846FEF70CFE07208DF800002E
:1021D00002208DF8010001208DF802008DF8030027
:1021E0006846FEF7FEFD08208DF8000003208DF8FC
:1021F000010001208DF802008DF803006846FEF70B
:10220000F0FD09208DF8000003208DF80100022068
:102210008DF8020001208DF803006846FEF7E1FD0D
:102220001FBD0000001801401FB501211020FEF75E
:10223000EAFC48F69F40ADF8080040F2CF70ADF8D8
:1022400004000020ADF80A00ADF8060001A90F480F
:10225000FEF704FF01210D48FFF722FD0122114680
:102260000A48FFF772FA01210848FFF753FA3620AF
:102270008DF8000000208DF801008DF8020001208B
:102280008DF803006846FEF7ACFD1FBD001000404E
:1022900070B504460D46E1B23448FFF755FE00BF65
:1022A00080213248FFF7BEFE0028F9D0204670BDDD
:1022B00000B587B001210420FEF798FC01218803B6
:1022C000FEF794FC01210846FEF790FC4FF40070E5
:1022D000ADF8180003208DF81A0018208DF81B00A7
:1022E00006A92348FEF7CCF94FF48060ADF818003A
:1022F00004208DF81B0006A91D48FEF7C1F94FF414
:10230000165002900020ADF80C00ADF80E00ADF8AC
:102310001000ADF814000C20ADF8120002A913480B
:10232000FFF719FD01211148FFF7A1FD012240F23D
:1023300025510E48FFF7A7FD40210C48FFF77FFE0F
:102340004FF4A060FEF748FD25208DF80400012021
:102350008DF8050000208DF8060001208DF807009B
:1023600001A8FEF73EFD07B000BD000000380140A7
:102370000008014008B501210820FEF737FC4FF4A2
:102380004060ADF8000003208DF8020010208DF8A9
:10239000030069469648FEF773F94FF4806194484C
:1023A000FEF719FA4FF400619148FEF714FA08BDE0
:1023B00008B54FF40060ADF8000003208DF802006E
:1023C00010208DF8030069468948FEF759F908BDC9
:1023D00008B54FF40060ADF8000048208DF8030008
:1023E00069468348FEF74CF908BD10B5FFF7E0FFDA
:1023F0004FF400617E48FEF7EEF94FF480617C48AF
:10240000FEF7E9F90520FFF767FE4FF40061784811
:10241000FEF7E3F90620FFF75FFE4FF48061744892
:10242000FEF7DBF910BD10B5FFF7C2FF4FF4806176
:102430006F48FEF7D2F94FF400616D48FEF7CDF911
:102440004FF480616A48FEF7C6F90620FFF744FEA4
:102450004FF400616648FEF7BEF90620FFF73CFE28
:1024600010BD10B54FF480616148FEF7B6F9FFF773
:102470009FFF4FF400615E48FEF7AFF90220FFF7BF
:102480002BFE4FF480615A48FEF7A5F90520FFF7AF
:1024900023FE4FF480615648FEF79FF910BD10B53A
:1024A0004FF480615248FEF798F9FFF781FF4FF42F
:1024B00000614F48FEF78FF90220FFF70DFE4FF441
:1024C00080614B48FEF787F90520FFF705FE4FF4C2
:1024D00080614748FEF781F910BD10B50024FFF771
:1024E00077FF4FF400614248FEF775F90120FFF7CE
:1024F000F3FD4FF480613E48FEF76DF90120FFF7D0
:10250000EBFD07E0601CC4B2FA2C03DDFFF78BFF84
:10251000012010BD4FF400613548FEF742F9002854
:10252000F0D14FF480613248FEF757F90020F0E710
:1025300070B504460025FFF73BFF4FF480612C483F
:10254000FEF74BF900BF22E004F08000002805DD13
:102550004FF400612648FEF73EF904E04FF40061B5
:102560002348FEF73AF96006040E4FF480612048D4
:10257000FEF731F90220FFF7AFFD4FF480611C48F0
:10258000FEF72BF90220FFF7A7FD681CC5B2082D46
:10259000DADB70BD70B5054600260024FFF718FF92
:1025A00000BF1BE04FF480611148FEF716F90220CE
:1025B000FFF792FD4FF480610D48FEF70CF96006BD
:1025C000040E4FF400610A48FEF7EBF808B1601CF6
:1025D000C4B20120FFF780FD701CC6B2082EE1DBFB
:1025E00015B9FFF75CFF01E0FFF73BFF204670BD28
:1025F000000C014070B504460026FFF7F6FE2546A4
:10260000E11704EB11610912A02202EB4101C8B2EB
:10261000FFF78EFFFFF761FFE11704EB116109126D
:10262000A4EB0121C8B2FFF783FFFFF756FFFFF7C6
:10263000DCFEA120FFF77CFFFFF74FFF0020FFF734
:10264000A9FF0646FFF72BFFFFF7EDFE304670BDF2
:1026500070B504460025FFF7C8FE2646E11704EBD7
:1026600011610912A02202EB4101C8B2FFF760FF1D
:10267000FFF733FFE11704EB11610912A4EB01210D
:10268000C8B2FFF755FFFFF728FFFFF7AEFEA12006
:10269000FFF74EFFFFF721FF0120FFF77BFF054605
:1026A0004FF6FF7000EA05250020FFF773FF054392
:1026B000FFF7B9FE284670BD70B504460E46FFF719
:1026C00094FE2546E11704EB11610912A02202EBEA
:1026D0004101C8B2FFF72CFFFFF7FFFEE11704EB43
:1026E00011610912A4EB0121C8B2FFF721FFFFF726
:1026F000F4FE3046FFF71CFFFFF7EFFEFFF793FEF7
:102700000A20FFF703FD70BD70B504460D46FFF7C4
:102710006CFE2646E11704EB11610912A02202EBC0
:102720004101C8B2FFF704FFFFF7D7FEE11704EB42
:1027300011610912A4EB0121C8B2FFF7F9FEFFF7FE
:10274000CCFE2812FFF7F4FEFFF7C7FEE8B2FFF752
:10275000EFFEFFF7C2FEFFF766FE0A20FFF7D6FC8A
:1027600070BD30B50B46014600202022012409E04F
:1027700021FA02F59D4205D303FA02F5491B04FA3A
:1027800002F52844151EA2F10102F1DC30BD000063
:10279000064C074D06E0E06840F0010394E80700AE
:1027A00098471034AC42F6D3FDF7C6FC4829000820
:1027B000682900080FB4054B10B503A9044A029814
:1027C00000F018F810BC5DF814FB0000912200081E
:1027D0004C00002002E008C8121F08C1002AFAD1EC
:1027E00070477047002001E001C1121F002AFBD191
:1027F000704700002DE9FF4F89B09B460446002535
:1028000097E0252833D10027641C4E49B8460122A1
:102810002378203B02FA03F0084202D00743641CED
:10282000F6E720782E2819D114F8010F47F0040795
:102830002A280ED06FF02F022078A0F1300109294C
:102840000CD808EB880102EB410100EB0108641C85
:10285000F2E70A98641C50F8048B0A90207800284C
:102860006BD0642808D0692806D0752820D05A4635
:102870000B9990476D1C5BE00A994FF00A0901C95A
:102880000A91002804DAC0F100004FF02D0102E0A7
:10289000390504D52B218DF82010012103E0F9071B
:1028A00004D02021F7E78A4608AE0EE00021FAE7BF
:1028B0000A994FF00A0901C90A91F7E74946FFF75B
:1028C00050FF01F1300106F8011D0028F6D1ADEBF3
:1028D000060000F12009780701D44FF00108C8452F
:1028E00002DDA8EB090000E000208046002706E09A
:1028F00008A85A46C05D0B9990476D1C7F1C574530
:10290000F6DB04E030205A460B9990476D1CB8F175
:102910000001A8F10108F5DC05E016F8010B5A46A4
:102920000B9990476D1CB9F10001A9F10109F4DC84
:10293000641C207800287FF464AF0DB02846BDE801
:10294000F08F00000928010068290008000000201D
:1029500050000000D4270008B829000850000020CB
:1029600000040000E4270008091E00C0F9A4B09983
:102970009282F8809000FF7FFFBFFFDFFFEFFFF73D
:10298000FFFB0000000000000000000000A24A045D
:10299000000000000000000001020304060708090F
:1029A00000000000010203040102030406070809F5
:0829B00002040608000000000B
:0400000508000131BD
:00000001FF
